{
  "contractName": "EthBridge",
  "abi": [
    {
      "inputs": [],
      "payable": false,
      "stateMutability": "nonpayable",
      "type": "constructor"
    },
    {
      "anonymous": false,
      "inputs": [
        {
          "indexed": false,
          "internalType": "string",
          "name": "symbol",
          "type": "string"
        },
        {
          "indexed": true,
          "internalType": "address",
          "name": "addrTokenLock",
          "type": "address"
        },
        {
          "indexed": true,
          "internalType": "address",
          "name": "sender",
          "type": "address"
        },
        {
          "indexed": false,
          "internalType": "uint256",
          "name": "amount",
          "type": "uint256"
        },
        {
          "indexed": false,
          "internalType": "uint256",
          "name": "price",
          "type": "uint256"
        },
        {
          "indexed": false,
          "internalType": "uint256",
          "name": "amountUSD",
          "type": "uint256"
        },
        {
          "indexed": false,
          "internalType": "address",
          "name": "recipient",
          "type": "address"
        }
      ],
      "name": "Locked",
      "type": "event"
    },
    {
      "anonymous": false,
      "inputs": [
        {
          "indexed": false,
          "internalType": "string",
          "name": "symbol",
          "type": "string"
        },
        {
          "indexed": true,
          "internalType": "address",
          "name": "addrTokenUnlock",
          "type": "address"
        },
        {
          "indexed": false,
          "internalType": "uint256",
          "name": "amountUSD",
          "type": "uint256"
        },
        {
          "indexed": false,
          "internalType": "uint256",
          "name": "amountToken",
          "type": "uint256"
        },
        {
          "indexed": false,
          "internalType": "uint256",
          "name": "priceToken",
          "type": "uint256"
        },
        {
          "indexed": false,
          "internalType": "address",
          "name": "recipient",
          "type": "address"
        },
        {
          "indexed": false,
          "internalType": "bytes32",
          "name": "receiptId",
          "type": "bytes32"
        }
      ],
      "name": "Unlocked",
      "type": "event"
    },
    {
      "anonymous": false,
      "inputs": [
        {
          "indexed": true,
          "internalType": "address",
          "name": "_owner",
          "type": "address"
        },
        {
          "indexed": false,
          "internalType": "uint256",
          "name": "amount",
          "type": "uint256"
        },
        {
          "indexed": false,
          "internalType": "string",
          "name": "msg",
          "type": "string"
        }
      ],
      "name": "WithdrawETH",
      "type": "event"
    },
    {
      "anonymous": false,
      "inputs": [
        {
          "indexed": false,
          "internalType": "address",
          "name": "addrTokenERC",
          "type": "address"
        },
        {
          "indexed": true,
          "internalType": "address",
          "name": "_owner",
          "type": "address"
        },
        {
          "indexed": false,
          "internalType": "uint256",
          "name": "amount",
          "type": "uint256"
        },
        {
          "indexed": false,
          "internalType": "string",
          "name": "msg",
          "type": "string"
        }
      ],
      "name": "WithdrawToken",
      "type": "event"
    },
    {
      "payable": true,
      "stateMutability": "payable",
      "type": "fallback"
    },
    {
      "constant": true,
      "inputs": [
        {
          "internalType": "address",
          "name": "",
          "type": "address"
        }
      ],
      "name": "listERC",
      "outputs": [
        {
          "internalType": "address",
          "name": "",
          "type": "address"
        }
      ],
      "payable": false,
      "stateMutability": "view",
      "type": "function"
    },
    {
      "constant": true,
      "inputs": [],
      "name": "owner",
      "outputs": [
        {
          "internalType": "address",
          "name": "",
          "type": "address"
        }
      ],
      "payable": false,
      "stateMutability": "view",
      "type": "function"
    },
    {
      "constant": true,
      "inputs": [],
      "name": "threshold",
      "outputs": [
        {
          "internalType": "uint16",
          "name": "",
          "type": "uint16"
        }
      ],
      "payable": false,
      "stateMutability": "view",
      "type": "function"
    },
    {
      "constant": true,
      "inputs": [
        {
          "internalType": "bytes32",
          "name": "",
          "type": "bytes32"
        }
      ],
      "name": "usedEvents_",
      "outputs": [
        {
          "internalType": "bool",
          "name": "",
          "type": "bool"
        }
      ],
      "payable": false,
      "stateMutability": "view",
      "type": "function"
    },
    {
      "constant": true,
      "inputs": [
        {
          "internalType": "address",
          "name": "",
          "type": "address"
        }
      ],
      "name": "wards",
      "outputs": [
        {
          "internalType": "uint256",
          "name": "",
          "type": "uint256"
        }
      ],
      "payable": false,
      "stateMutability": "view",
      "type": "function"
    },
    {
      "constant": false,
      "inputs": [
        {
          "internalType": "address",
          "name": "guy",
          "type": "address"
        }
      ],
      "name": "rely",
      "outputs": [],
      "payable": false,
      "stateMutability": "nonpayable",
      "type": "function"
    },
    {
      "constant": false,
      "inputs": [
        {
          "internalType": "address",
          "name": "guy",
          "type": "address"
        }
      ],
      "name": "deny",
      "outputs": [],
      "payable": false,
      "stateMutability": "nonpayable",
      "type": "function"
    },
    {
      "constant": false,
      "inputs": [
        {
          "internalType": "address",
          "name": "_addrERC",
          "type": "address"
        },
        {
          "internalType": "address",
          "name": "_oracleAddr",
          "type": "address"
        }
      ],
      "name": "changeOracle",
      "outputs": [],
      "payable": false,
      "stateMutability": "nonpayable",
      "type": "function"
    },
    {
      "constant": false,
      "inputs": [
        {
          "internalType": "uint16",
          "name": "newTheshold",
          "type": "uint16"
        }
      ],
      "name": "changeThreshold",
      "outputs": [],
      "payable": false,
      "stateMutability": "nonpayable",
      "type": "function"
    },
    {
      "constant": true,
      "inputs": [
        {
          "internalType": "address",
          "name": "_tokenERC",
          "type": "address"
        }
      ],
      "name": "getLatestPrice",
      "outputs": [
        {
          "internalType": "int256",
          "name": "",
          "type": "int256"
        }
      ],
      "payable": false,
      "stateMutability": "view",
      "type": "function"
    },
    {
      "constant": false,
      "inputs": [
        {
          "internalType": "uint256",
          "name": "amount",
          "type": "uint256"
        },
        {
          "internalType": "address",
          "name": "recipient",
          "type": "address"
        }
      ],
      "name": "lockEth",
      "outputs": [],
      "payable": true,
      "stateMutability": "payable",
      "type": "function"
    },
    {
      "constant": false,
      "inputs": [
        {
          "internalType": "address",
          "name": "addrTokenERC",
          "type": "address"
        },
        {
          "internalType": "uint256",
          "name": "amount",
          "type": "uint256"
        },
        {
          "internalType": "address",
          "name": "recipient",
          "type": "address"
        }
      ],
      "name": "lockToken",
      "outputs": [],
      "payable": false,
      "stateMutability": "nonpayable",
      "type": "function"
    },
    {
      "constant": false,
      "inputs": [
        {
          "internalType": "address",
          "name": "addrTokenERC",
          "type": "address"
        },
        {
          "internalType": "address",
          "name": "userAddr",
          "type": "address"
        },
        {
          "internalType": "uint256",
          "name": "amount",
          "type": "uint256"
        },
        {
          "internalType": "address",
          "name": "recipient",
          "type": "address"
        }
      ],
      "name": "lockTokenFor",
      "outputs": [],
      "payable": false,
      "stateMutability": "nonpayable",
      "type": "function"
    },
    {
      "constant": false,
      "inputs": [
        {
          "internalType": "address",
          "name": "addrTokenERC",
          "type": "address"
        },
        {
          "internalType": "uint256",
          "name": "amountUSD",
          "type": "uint256"
        },
        {
          "internalType": "address",
          "name": "recipient",
          "type": "address"
        },
        {
          "internalType": "bytes32",
          "name": "receiptId",
          "type": "bytes32"
        }
      ],
      "name": "unlockToken",
      "outputs": [],
      "payable": false,
      "stateMutability": "nonpayable",
      "type": "function"
    },
    {
      "constant": false,
      "inputs": [
        {
          "internalType": "uint256",
          "name": "amountUSD",
          "type": "uint256"
        },
        {
          "internalType": "address payable",
          "name": "recipient",
          "type": "address"
        },
        {
          "internalType": "bytes32",
          "name": "receiptId",
          "type": "bytes32"
        }
      ],
      "name": "unlockEth",
      "outputs": [],
      "payable": false,
      "stateMutability": "nonpayable",
      "type": "function"
    },
    {
      "constant": true,
      "inputs": [
        {
          "internalType": "address",
          "name": "_addrToken",
          "type": "address"
        }
      ],
      "name": "checkMyBalanceOfToken",
      "outputs": [
        {
          "internalType": "uint256",
          "name": "",
          "type": "uint256"
        }
      ],
      "payable": false,
      "stateMutability": "view",
      "type": "function"
    },
    {
      "constant": true,
      "inputs": [
        {
          "internalType": "address",
          "name": "_addrToken",
          "type": "address"
        }
      ],
      "name": "checkContractBalanceOfToken",
      "outputs": [
        {
          "internalType": "uint256",
          "name": "",
          "type": "uint256"
        }
      ],
      "payable": false,
      "stateMutability": "view",
      "type": "function"
    },
    {
      "constant": true,
      "inputs": [],
      "name": "getBalanceETH",
      "outputs": [
        {
          "internalType": "uint256",
          "name": "",
          "type": "uint256"
        }
      ],
      "payable": false,
      "stateMutability": "view",
      "type": "function"
    },
    {
      "constant": false,
      "inputs": [
        {
          "internalType": "address payable",
          "name": "_owner",
          "type": "address"
        }
      ],
      "name": "withdraw",
      "outputs": [],
      "payable": false,
      "stateMutability": "nonpayable",
      "type": "function"
    },
    {
      "constant": false,
      "inputs": [
        {
          "internalType": "address",
          "name": "addrTokenERC",
          "type": "address"
        },
        {
          "internalType": "address",
          "name": "_owner",
          "type": "address"
        },
        {
          "internalType": "uint256",
          "name": "amount",
          "type": "uint256"
        }
      ],
      "name": "withdrawToken",
      "outputs": [],
      "payable": false,
      "stateMutability": "nonpayable",
      "type": "function"
    }
  ],
  "bytecode": "0x608060405234801561001057600080fd5b5033600360006101000a81548173ffffffffffffffffffffffffffffffffffffffff021916908373ffffffffffffffffffffffffffffffffffffffff160217905550600160026000600360009054906101000a900473ffffffffffffffffffffffffffffffffffffffff1673ffffffffffffffffffffffffffffffffffffffff1673ffffffffffffffffffffffffffffffffffffffff168152602001908152602001600020819055506001600360146101000a81548161ffff021916908361ffff1602179055507330b5068156688f818cea0874b580206dfe081a0360016000600173ffffffffffffffffffffffffffffffffffffffff1673ffffffffffffffffffffffffffffffffffffffff16815260200190815260200160002060006101000a81548173ffffffffffffffffffffffffffffffffffffffff021916908373ffffffffffffffffffffffffffffffffffffffff16021790555073af540ca83c7da3181778e3d1e11a6137e7e0085b6001600073ad6d458402f60fd3bd25163575031acdce07538d73ffffffffffffffffffffffffffffffffffffffff1673ffffffffffffffffffffffffffffffffffffffff16815260200190815260200160002060006101000a81548173ffffffffffffffffffffffffffffffffffffffff021916908373ffffffffffffffffffffffffffffffffffffffff1602179055507340c9885aa8213b40e3e8a0a9aae69d4fb5915a3a6001600073b4f7332ed719eb4839f091eddb2a3ba30973952173ffffffffffffffffffffffffffffffffffffffff1673ffffffffffffffffffffffffffffffffffffffff16815260200190815260200160002060006101000a81548173ffffffffffffffffffffffffffffffffffffffff021916908373ffffffffffffffffffffffffffffffffffffffff160217905550736701c0057dab793f88a30b8d40dd31f3a7bc6b8760016000734e470dc7321e84ca96fcaedd0c8abcebbaeb68c673ffffffffffffffffffffffffffffffffffffffff1673ffffffffffffffffffffffffffffffffffffffff16815260200190815260200160002060006101000a81548173ffffffffffffffffffffffffffffffffffffffff021916908373ffffffffffffffffffffffffffffffffffffffff1602179055506134f48061036b6000396000f3fe60806040526004361061011f5760003560e01c8063973ff2e0116100a0578063b656919511610064578063b65691951461069e578063bccc9fcf146106ec578063bf353dbb1461073f578063f921ee99146107a4578063fe7f61ea146108355761011f565b8063973ff2e0146105195780639c52a7f11461057e578063a71c4d5a146105cf578063acd1f25414610634578063b574ba861461065f5761011f565b806342cde4e8116100e757806342cde4e81461037c5780634dc809ce146103af57806351cff8d91461042057806365fae35e146104715780638da5cb5b146104c25761011f565b8063015ed52e1461012157806301e33667146101865780630296be631461020157806309eb27281461029c57806316345f1814610317575b005b34801561012d57600080fd5b506101706004803603602081101561014457600080fd5b81019080803573ffffffffffffffffffffffffffffffffffffffff1690602001909291905050506108ba565b6040518082815260200191505060405180910390f35b34801561019257600080fd5b506101ff600480360360608110156101a957600080fd5b81019080803573ffffffffffffffffffffffffffffffffffffffff169060200190929190803573ffffffffffffffffffffffffffffffffffffffff16906020019092919080359060200190929190505050610986565b005b34801561020d57600080fd5b5061029a6004803603608081101561022457600080fd5b81019080803573ffffffffffffffffffffffffffffffffffffffff169060200190929190803573ffffffffffffffffffffffffffffffffffffffff16906020019092919080359060200190929190803573ffffffffffffffffffffffffffffffffffffffff169060200190929190505050610c3a565b005b3480156102a857600080fd5b50610315600480360360608110156102bf57600080fd5b81019080803573ffffffffffffffffffffffffffffffffffffffff16906020019092919080359060200190929190803573ffffffffffffffffffffffffffffffffffffffff1690602001909291905050506114d1565b005b34801561032357600080fd5b506103666004803603602081101561033a57600080fd5b81019080803573ffffffffffffffffffffffffffffffffffffffff169060200190929190505050611c0f565b6040518082815260200191505060405180910390f35b34801561038857600080fd5b50610391611ca4565b604051808261ffff1661ffff16815260200191505060405180910390f35b3480156103bb57600080fd5b5061041e600480360360408110156103d257600080fd5b81019080803573ffffffffffffffffffffffffffffffffffffffff169060200190929190803573ffffffffffffffffffffffffffffffffffffffff169060200190929190505050611cb8565b005b34801561042c57600080fd5b5061046f6004803603602081101561044357600080fd5b81019080803573ffffffffffffffffffffffffffffffffffffffff169060200190929190505050611efb565b005b34801561047d57600080fd5b506104c06004803603602081101561049457600080fd5b81019080803573ffffffffffffffffffffffffffffffffffffffff169060200190929190505050612087565b005b3480156104ce57600080fd5b506104d7612184565b604051808273ffffffffffffffffffffffffffffffffffffffff1673ffffffffffffffffffffffffffffffffffffffff16815260200191505060405180910390f35b34801561052557600080fd5b5061057c6004803603606081101561053c57600080fd5b8101908080359060200190929190803573ffffffffffffffffffffffffffffffffffffffff169060200190929190803590602001909291905050506121aa565b005b34801561058a57600080fd5b506105cd600480360360208110156105a157600080fd5b81019080803573ffffffffffffffffffffffffffffffffffffffff169060200190929190505050612580565b005b3480156105db57600080fd5b5061061e600480360360208110156105f257600080fd5b81019080803573ffffffffffffffffffffffffffffffffffffffff169060200190929190505050612741565b6040518082815260200191505060405180910390f35b34801561064057600080fd5b5061064961280d565b6040518082815260200191505060405180910390f35b34801561066b57600080fd5b5061069c6004803603602081101561068257600080fd5b81019080803561ffff169060200190929190505050612815565b005b6106ea600480360360408110156106b457600080fd5b8101908080359060200190929190803573ffffffffffffffffffffffffffffffffffffffff1690602001909291905050506128db565b005b3480156106f857600080fd5b506107256004803603602081101561070f57600080fd5b8101908080359060200190929190505050612ba9565b604051808215151515815260200191505060405180910390f35b34801561074b57600080fd5b5061078e6004803603602081101561076257600080fd5b81019080803573ffffffffffffffffffffffffffffffffffffffff169060200190929190505050612bc9565b6040518082815260200191505060405180910390f35b3480156107b057600080fd5b506107f3600480360360208110156107c757600080fd5b81019080803573ffffffffffffffffffffffffffffffffffffffff169060200190929190505050612be1565b604051808273ffffffffffffffffffffffffffffffffffffffff1673ffffffffffffffffffffffffffffffffffffffff16815260200191505060405180910390f35b34801561084157600080fd5b506108b86004803603608081101561085857600080fd5b81019080803573ffffffffffffffffffffffffffffffffffffffff16906020019092919080359060200190929190803573ffffffffffffffffffffffffffffffffffffffff16906020019092919080359060200190929190505050612c14565b005b60008082905060008173ffffffffffffffffffffffffffffffffffffffff166370a08231306040518263ffffffff1660e01b8152600401808273ffffffffffffffffffffffffffffffffffffffff1673ffffffffffffffffffffffffffffffffffffffff16815260200191505060206040518083038186803b15801561093f57600080fd5b505afa158015610953573d6000803e3d6000fd5b505050506040513d602081101561096957600080fd5b810190808051906020019092919050505090508092505050919050565b6001600260003373ffffffffffffffffffffffffffffffffffffffff1673ffffffffffffffffffffffffffffffffffffffff1681526020019081526020016000205414610a3b576040517f08c379a00000000000000000000000000000000000000000000000000000000081526004018080602001828103825260198152602001807f4574684d616e616765722f6e6f742d617574686f72697a65640000000000000081525060200191505060405180910390fd5b60008111610ab1576040517f08c379a000000000000000000000000000000000000000000000000000000000815260040180806020018281038252601c8152602001807f4574684d616e616765722f7a65726f20746f6b656e206c6f636b65640000000081525060200191505060405180910390fd5b60008390508073ffffffffffffffffffffffffffffffffffffffff1663a9059cbb84846040518363ffffffff1660e01b8152600401808373ffffffffffffffffffffffffffffffffffffffff1673ffffffffffffffffffffffffffffffffffffffff16815260200182815260200192505050602060405180830381600087803b158015610b3d57600080fd5b505af1158015610b51573d6000803e3d6000fd5b505050506040513d6020811015610b6757600080fd5b8101908080519060200190929190505050508273ffffffffffffffffffffffffffffffffffffffff167f9b1ce395f06d20cfda7c507fce70665c7d02538019987c27111bb0accc35bb8e8584604051808373ffffffffffffffffffffffffffffffffffffffff1673ffffffffffffffffffffffffffffffffffffffff168152602001828152602001806020018281038252600e8152602001807f776974686472617720546f6b656e000000000000000000000000000000000000815250602001935050505060405180910390a250505050565b6001600260003373ffffffffffffffffffffffffffffffffffffffff1673ffffffffffffffffffffffffffffffffffffffff1681526020019081526020016000205414610cef576040517f08c379a00000000000000000000000000000000000000000000000000000000081526004018080602001828103825260198152602001807f4574684d616e616765722f6e6f742d617574686f72697a65640000000000000081525060200191505060405180910390fd5b600073ffffffffffffffffffffffffffffffffffffffff16600160008673ffffffffffffffffffffffffffffffffffffffff1673ffffffffffffffffffffffffffffffffffffffff16815260200190815260200160002060009054906101000a900473ffffffffffffffffffffffffffffffffffffffff1673ffffffffffffffffffffffffffffffffffffffff161415610dd4576040517f08c379a000000000000000000000000000000000000000000000000000000000815260040180806020018281038252602d815260200180613446602d913960400191505060405180910390fd5b600073ffffffffffffffffffffffffffffffffffffffff168373ffffffffffffffffffffffffffffffffffffffff161415610e77576040517f08c379a000000000000000000000000000000000000000000000000000000000815260040180806020018281038252601a8152602001807f75736572416464722069732061207a65726f206164647265737300000000000081525060200191505060405180910390fd5b600073ffffffffffffffffffffffffffffffffffffffff168173ffffffffffffffffffffffffffffffffffffffff161415610efd576040517f08c379a00000000000000000000000000000000000000000000000000000000081526004018080602001828103825260268152602001806134736026913960400191505060405180910390fd5b60008211610f73576040517f08c379a000000000000000000000000000000000000000000000000000000000815260040180806020018281038252601c8152602001807f4574684d616e616765722f7a65726f20746f6b656e206c6f636b65640000000081525060200191505060405180910390fd5b600084905060008173ffffffffffffffffffffffffffffffffffffffff166370a08231866040518263ffffffff1660e01b8152600401808273ffffffffffffffffffffffffffffffffffffffff1673ffffffffffffffffffffffffffffffffffffffff16815260200191505060206040518083038186803b158015610ff757600080fd5b505afa15801561100b573d6000803e3d6000fd5b505050506040513d602081101561102157600080fd5b810190808051906020019092919050505090508173ffffffffffffffffffffffffffffffffffffffff166323b872dd8630876040518463ffffffff1660e01b8152600401808473ffffffffffffffffffffffffffffffffffffffff1673ffffffffffffffffffffffffffffffffffffffff1681526020018373ffffffffffffffffffffffffffffffffffffffff1673ffffffffffffffffffffffffffffffffffffffff1681526020018281526020019350505050602060405180830381600087803b1580156110ef57600080fd5b505af1158015611103573d6000803e3d6000fd5b505050506040513d602081101561111957600080fd5b81019080805190602001909291905050505060008273ffffffffffffffffffffffffffffffffffffffff166370a08231876040518263ffffffff1660e01b8152600401808273ffffffffffffffffffffffffffffffffffffffff1673ffffffffffffffffffffffffffffffffffffffff16815260200191505060206040518083038186803b1580156111aa57600080fd5b505afa1580156111be573d6000803e3d6000fd5b505050506040513d60208110156111d457600080fd5b8101908080519060200190929190505050905060006111fc82846131dd90919063ffffffff16565b90506000611268600160008b73ffffffffffffffffffffffffffffffffffffffff1673ffffffffffffffffffffffffffffffffffffffff16815260200190815260200160002060009054906101000a900473ffffffffffffffffffffffffffffffffffffffff16611c0f565b9050600082820290503373ffffffffffffffffffffffffffffffffffffffff168a73ffffffffffffffffffffffffffffffffffffffff167f53cd97236764eb41cecf4ce6787775ece569aff6b74a8f25f2f4d4a8775be3098873ffffffffffffffffffffffffffffffffffffffff166395d89b416040518163ffffffff1660e01b815260040160006040518083038186803b15801561130657600080fd5b505afa15801561131a573d6000803e3d6000fd5b505050506040513d6000823e3d601f19601f82011682018060405250602081101561134457600080fd5b810190808051604051939291908464010000000082111561136457600080fd5b8382019150602082018581111561137a57600080fd5b825186600182028301116401000000008211171561139757600080fd5b8083526020830192505050908051906020019080838360005b838110156113cb5780820151818401526020810190506113b0565b50505050905090810190601f1680156113f85780820380516001836020036101000a031916815260200191505b506040525050508686868d60405180806020018681526020018581526020018481526020018373ffffffffffffffffffffffffffffffffffffffff1673ffffffffffffffffffffffffffffffffffffffff168152602001828103825287818151815260200191508051906020019080838360005b8381101561148757808201518184015260208101905061146c565b50505050905090810190601f1680156114b45780820380516001836020036101000a031916815260200191505b50965050505050505060405180910390a350505050505050505050565b600073ffffffffffffffffffffffffffffffffffffffff16600160008573ffffffffffffffffffffffffffffffffffffffff1673ffffffffffffffffffffffffffffffffffffffff16815260200190815260200160002060009054906101000a900473ffffffffffffffffffffffffffffffffffffffff1673ffffffffffffffffffffffffffffffffffffffff1614156115b6576040517f08c379a000000000000000000000000000000000000000000000000000000000815260040180806020018281038252602d815260200180613446602d913960400191505060405180910390fd5b600073ffffffffffffffffffffffffffffffffffffffff168173ffffffffffffffffffffffffffffffffffffffff16141561163c576040517f08c379a00000000000000000000000000000000000000000000000000000000081526004018080602001828103825260268152602001806134736026913960400191505060405180910390fd5b600082116116b2576040517f08c379a000000000000000000000000000000000000000000000000000000000815260040180806020018281038252601c8152602001807f4574684d616e616765722f7a65726f20746f6b656e206c6f636b65640000000081525060200191505060405180910390fd5b600083905060008173ffffffffffffffffffffffffffffffffffffffff166370a08231336040518263ffffffff1660e01b8152600401808273ffffffffffffffffffffffffffffffffffffffff1673ffffffffffffffffffffffffffffffffffffffff16815260200191505060206040518083038186803b15801561173657600080fd5b505afa15801561174a573d6000803e3d6000fd5b505050506040513d602081101561176057600080fd5b810190808051906020019092919050505090508173ffffffffffffffffffffffffffffffffffffffff166323b872dd3330876040518463ffffffff1660e01b8152600401808473ffffffffffffffffffffffffffffffffffffffff1673ffffffffffffffffffffffffffffffffffffffff1681526020018373ffffffffffffffffffffffffffffffffffffffff1673ffffffffffffffffffffffffffffffffffffffff1681526020018281526020019350505050602060405180830381600087803b15801561182e57600080fd5b505af1158015611842573d6000803e3d6000fd5b505050506040513d602081101561185857600080fd5b81019080805190602001909291905050505060008273ffffffffffffffffffffffffffffffffffffffff166370a08231336040518263ffffffff1660e01b8152600401808273ffffffffffffffffffffffffffffffffffffffff1673ffffffffffffffffffffffffffffffffffffffff16815260200191505060206040518083038186803b1580156118e957600080fd5b505afa1580156118fd573d6000803e3d6000fd5b505050506040513d602081101561191357600080fd5b81019080805190602001909291905050509050600061193b82846131dd90919063ffffffff16565b905060006119a7600160008a73ffffffffffffffffffffffffffffffffffffffff1673ffffffffffffffffffffffffffffffffffffffff16815260200190815260200160002060009054906101000a900473ffffffffffffffffffffffffffffffffffffffff16611c0f565b9050600082820290503373ffffffffffffffffffffffffffffffffffffffff168973ffffffffffffffffffffffffffffffffffffffff167f53cd97236764eb41cecf4ce6787775ece569aff6b74a8f25f2f4d4a8775be3098873ffffffffffffffffffffffffffffffffffffffff166395d89b416040518163ffffffff1660e01b815260040160006040518083038186803b158015611a4557600080fd5b505afa158015611a59573d6000803e3d6000fd5b505050506040513d6000823e3d601f19601f820116820180604052506020811015611a8357600080fd5b8101908080516040519392919084640100000000821115611aa357600080fd5b83820191506020820185811115611ab957600080fd5b8251866001820283011164010000000082111715611ad657600080fd5b8083526020830192505050908051906020019080838360005b83811015611b0a578082015181840152602081019050611aef565b50505050905090810190601f168015611b375780820380516001836020036101000a031916815260200191505b506040525050508686868d60405180806020018681526020018581526020018481526020018373ffffffffffffffffffffffffffffffffffffffff1673ffffffffffffffffffffffffffffffffffffffff168152602001828103825287818151815260200191508051906020019080838360005b83811015611bc6578082015181840152602081019050611bab565b50505050905090810190601f168015611bf35780820380516001836020036101000a031916815260200191505b50965050505050505060405180910390a3505050505050505050565b60008082905060008173ffffffffffffffffffffffffffffffffffffffff166350d25bcd6040518163ffffffff1660e01b815260040160206040518083038186803b158015611c5d57600080fd5b505afa158015611c71573d6000803e3d6000fd5b505050506040513d6020811015611c8757600080fd5b810190808051906020019092919050505090508092505050919050565b600360149054906101000a900461ffff1681565b6001600260003373ffffffffffffffffffffffffffffffffffffffff1673ffffffffffffffffffffffffffffffffffffffff1681526020019081526020016000205414611d6d576040517f08c379a00000000000000000000000000000000000000000000000000000000081526004018080602001828103825260198152602001807f4574684d616e616765722f6e6f742d617574686f72697a65640000000000000081525060200191505060405180910390fd5b600073ffffffffffffffffffffffffffffffffffffffff168273ffffffffffffffffffffffffffffffffffffffff161415611df3576040517f08c379a00000000000000000000000000000000000000000000000000000000081526004018080602001828103825260248152602001806134226024913960400191505060405180910390fd5b600073ffffffffffffffffffffffffffffffffffffffff168173ffffffffffffffffffffffffffffffffffffffff161415611e79576040517f08c379a00000000000000000000000000000000000000000000000000000000081526004018080602001828103825260278152602001806134996027913960400191505060405180910390fd5b80600160008473ffffffffffffffffffffffffffffffffffffffff1673ffffffffffffffffffffffffffffffffffffffff16815260200190815260200160002060006101000a81548173ffffffffffffffffffffffffffffffffffffffff021916908373ffffffffffffffffffffffffffffffffffffffff1602179055505050565b6001600260003373ffffffffffffffffffffffffffffffffffffffff1673ffffffffffffffffffffffffffffffffffffffff1681526020019081526020016000205414611fb0576040517f08c379a00000000000000000000000000000000000000000000000000000000081526004018080602001828103825260198152602001807f4574684d616e616765722f6e6f742d617574686f72697a65640000000000000081525060200191505060405180910390fd5b60004790508173ffffffffffffffffffffffffffffffffffffffff166108fc479081150290604051600060405180830381858888f19350505050158015611ffb573d6000803e3d6000fd5b508173ffffffffffffffffffffffffffffffffffffffff167f696087f0178b1ccf3f2ae9d50b2ccf117070f01737d03efe9f931ede9ffc69758260405180828152602001806020018281038252600c8152602001807f57697468647261772045544800000000000000000000000000000000000000008152506020019250505060405180910390a25050565b6001600260003373ffffffffffffffffffffffffffffffffffffffff1673ffffffffffffffffffffffffffffffffffffffff168152602001908152602001600020541461213c576040517f08c379a00000000000000000000000000000000000000000000000000000000081526004018080602001828103825260198152602001807f4574684d616e616765722f6e6f742d617574686f72697a65640000000000000081525060200191505060405180910390fd5b6001600260008373ffffffffffffffffffffffffffffffffffffffff1673ffffffffffffffffffffffffffffffffffffffff1681526020019081526020016000208190555050565b600360009054906101000a900473ffffffffffffffffffffffffffffffffffffffff1681565b6001600260003373ffffffffffffffffffffffffffffffffffffffff1673ffffffffffffffffffffffffffffffffffffffff168152602001908152602001600020541461225f576040517f08c379a00000000000000000000000000000000000000000000000000000000081526004018080602001828103825260198152602001807f4574684d616e616765722f6e6f742d617574686f72697a65640000000000000081525060200191505060405180910390fd5b60008082815260200190815260200160002060009054906101000a900460ff16156122f2576040517f08c379a000000000000000000000000000000000000000000000000000000000815260040180806020018281038252601e8152602001807f4574684d616e616765722f7a65726f20746f6b656e20756e6c6f636b6564000081525060200191505060405180910390fd5b60016004600083815260200190815260200160002060009054906101000a900461ffff16016004600083815260200190815260200160002060006101000a81548161ffff021916908361ffff160217905550600360149054906101000a900461ffff1661ffff166004600083815260200190815260200160002060009054906101000a900461ffff1661ffff16101561238a5761257b565b600160008083815260200190815260200160002060006101000a81548160ff021916908315150217905550600061242060016000600173ffffffffffffffffffffffffffffffffffffffff1673ffffffffffffffffffffffffffffffffffffffff16815260200190815260200160002060009054906101000a900473ffffffffffffffffffffffffffffffffffffffff16611c0f565b90506000612437828661322790919063ffffffff16565b90508373ffffffffffffffffffffffffffffffffffffffff166108fc829081150290604051600060405180830381858888f1935050505015801561247f573d6000803e3d6000fd5b50600173ffffffffffffffffffffffffffffffffffffffff167f5b7ba4ec1678200131c0b89adc4e572419cbbea764471b14465f689596272662868385888860405180806020018781526020018681526020018581526020018473ffffffffffffffffffffffffffffffffffffffff1673ffffffffffffffffffffffffffffffffffffffff168152602001838152602001828103825260038152602001807f4554480000000000000000000000000000000000000000000000000000000000815250602001965050505050505060405180910390a26004600084815260200190815260200160002060006101000a81549061ffff021916905550505b505050565b6001600260003373ffffffffffffffffffffffffffffffffffffffff1673ffffffffffffffffffffffffffffffffffffffff1681526020019081526020016000205414612635576040517f08c379a00000000000000000000000000000000000000000000000000000000081526004018080602001828103825260198152602001807f4574684d616e616765722f6e6f742d617574686f72697a65640000000000000081525060200191505060405180910390fd5b600360009054906101000a900473ffffffffffffffffffffffffffffffffffffffff1673ffffffffffffffffffffffffffffffffffffffff168173ffffffffffffffffffffffffffffffffffffffff1614156126f9576040517f08c379a00000000000000000000000000000000000000000000000000000000081526004018080602001828103825260208152602001807f4574684d616e616765722f63616e6e6f742064656e7920746865206f776e657281525060200191505060405180910390fd5b6000600260008373ffffffffffffffffffffffffffffffffffffffff1673ffffffffffffffffffffffffffffffffffffffff1681526020019081526020016000208190555050565b60008082905060008173ffffffffffffffffffffffffffffffffffffffff166370a08231336040518263ffffffff1660e01b8152600401808273ffffffffffffffffffffffffffffffffffffffff1673ffffffffffffffffffffffffffffffffffffffff16815260200191505060206040518083038186803b1580156127c657600080fd5b505afa1580156127da573d6000803e3d6000fd5b505050506040513d60208110156127f057600080fd5b810190808051906020019092919050505090508092505050919050565b600047905090565b600360009054906101000a900473ffffffffffffffffffffffffffffffffffffffff1673ffffffffffffffffffffffffffffffffffffffff163373ffffffffffffffffffffffffffffffffffffffff16146128bb576040517f08c379a000000000000000000000000000000000000000000000000000000000815260040180806020018281038252602a8152602001806133f8602a913960400191505060405180910390fd5b80600360146101000a81548161ffff021916908361ffff16021790555050565b600073ffffffffffffffffffffffffffffffffffffffff168173ffffffffffffffffffffffffffffffffffffffff161415612961576040517f08c379a00000000000000000000000000000000000000000000000000000000081526004018080602001828103825260268152602001806134736026913960400191505060405180910390fd5b600082116129d7576040517f08c379a000000000000000000000000000000000000000000000000000000000815260040180806020018281038252601c8152602001807f4574684d616e616765722f7a65726f20746f6b656e206c6f636b65640000000081525060200191505060405180910390fd5b348214612a4c576040517f08c379a000000000000000000000000000000000000000000000000000000000815260040180806020018281038252601e8152602001807f616d6f756e7420616e64206d73672e76616c756520646966666572656e74000081525060200191505060405180910390fd5b6000612ab760016000600173ffffffffffffffffffffffffffffffffffffffff1673ffffffffffffffffffffffffffffffffffffffff16815260200190815260200160002060009054906101000a900473ffffffffffffffffffffffffffffffffffffffff16611c0f565b9050600034820290503373ffffffffffffffffffffffffffffffffffffffff16600173ffffffffffffffffffffffffffffffffffffffff167f53cd97236764eb41cecf4ce6787775ece569aff6b74a8f25f2f4d4a8775be3093485858860405180806020018681526020018581526020018481526020018373ffffffffffffffffffffffffffffffffffffffff1673ffffffffffffffffffffffffffffffffffffffff168152602001828103825260038152602001807f45544800000000000000000000000000000000000000000000000000000000008152506020019550505050505060405180910390a350505050565b60006020528060005260406000206000915054906101000a900460ff1681565b60026020528060005260406000206000915090505481565b60016020528060005260406000206000915054906101000a900473ffffffffffffffffffffffffffffffffffffffff1681565b6001600260003373ffffffffffffffffffffffffffffffffffffffff1673ffffffffffffffffffffffffffffffffffffffff1681526020019081526020016000205414612cc9576040517f08c379a00000000000000000000000000000000000000000000000000000000081526004018080602001828103825260198152602001807f4574684d616e616765722f6e6f742d617574686f72697a65640000000000000081525060200191505060405180910390fd5b60008082815260200190815260200160002060009054906101000a900460ff1615612d5c576040517f08c379a000000000000000000000000000000000000000000000000000000000815260040180806020018281038252601e8152602001807f4574684d616e616765722f7a65726f20746f6b656e20756e6c6f636b6564000081525060200191505060405180910390fd5b60016004600083815260200190815260200160002060009054906101000a900461ffff16016004600083815260200190815260200160002060006101000a81548161ffff021916908361ffff160217905550600360149054906101000a900461ffff1661ffff166004600083815260200190815260200160002060009054906101000a900461ffff1661ffff161015612df4576131d7565b6000849050600160008084815260200190815260200160002060006101000a81548160ff0219169083151502179055506000612e8e600160008873ffffffffffffffffffffffffffffffffffffffff1673ffffffffffffffffffffffffffffffffffffffff16815260200190815260200160002060009054906101000a900473ffffffffffffffffffffffffffffffffffffffff16611c0f565b90506000612ea5828761322790919063ffffffff16565b90508273ffffffffffffffffffffffffffffffffffffffff1663a9059cbb86836040518363ffffffff1660e01b8152600401808373ffffffffffffffffffffffffffffffffffffffff1673ffffffffffffffffffffffffffffffffffffffff16815260200182815260200192505050602060405180830381600087803b158015612f2e57600080fd5b505af1158015612f42573d6000803e3d6000fd5b505050506040513d6020811015612f5857600080fd5b8101908080519060200190929190505050508673ffffffffffffffffffffffffffffffffffffffff167f5b7ba4ec1678200131c0b89adc4e572419cbbea764471b14465f6895962726628473ffffffffffffffffffffffffffffffffffffffff166395d89b416040518163ffffffff1660e01b815260040160006040518083038186803b158015612fe857600080fd5b505afa158015612ffc573d6000803e3d6000fd5b505050506040513d6000823e3d601f19601f82011682018060405250602081101561302657600080fd5b810190808051604051939291908464010000000082111561304657600080fd5b8382019150602082018581111561305c57600080fd5b825186600182028301116401000000008211171561307957600080fd5b8083526020830192505050908051906020019080838360005b838110156130ad578082015181840152602081019050613092565b50505050905090810190601f1680156130da5780820380516001836020036101000a031916815260200191505b506040525050508884868a8a60405180806020018781526020018681526020018581526020018473ffffffffffffffffffffffffffffffffffffffff1673ffffffffffffffffffffffffffffffffffffffff168152602001838152602001828103825288818151815260200191508051906020019080838360005b83811015613170578082015181840152602081019050613155565b50505050905090810190601f16801561319d5780820380516001836020036101000a031916815260200191505b5097505050505050505060405180910390a26004600085815260200190815260200160002060006101000a81549061ffff02191690555050505b50505050565b600061321f83836040518060400160405280601e81526020017f536166654d6174683a207375627472616374696f6e206f766572666c6f770000815250613271565b905092915050565b600061326983836040518060400160405280601a81526020017f536166654d6174683a206469766973696f6e206279207a65726f000000000000815250613331565b905092915050565b600083831115829061331e576040517f08c379a00000000000000000000000000000000000000000000000000000000081526004018080602001828103825283818151815260200191508051906020019080838360005b838110156132e35780820151818401526020810190506132c8565b50505050905090810190601f1680156133105780820380516001836020036101000a031916815260200191505b509250505060405180910390fd5b5060008385039050809150509392505050565b600080831182906133dd576040517f08c379a00000000000000000000000000000000000000000000000000000000081526004018080602001828103825283818151815260200191508051906020019080838360005b838110156133a2578082015181840152602081019050613387565b50505050905090810190601f1680156133cf5780820380516001836020036101000a031916815260200191505b509250505060405180910390fd5b5060008385816133e957fe5b04905080915050939250505056fe4574684d616e616765722f6f6e6c79206f776e65722063616e206368616e6765207468726573686f6c645f61646472455243206f66206f7261636c652069732061207a65726f20616464726573736164647265737320746f6b656e2045524320617265206e6f742063757272656e746c7920737570706f727465644574684d616e616765722f726563697069656e742069732061207a65726f20616464726573735f6f7261636c6541646472206f66206f7261636c652069732061207a65726f2061646472657373a265627a7a72315820bfd80893871c6e26e5d21834bae65a23df84bccf2d8ee5bcc6dd4ff9d603f82064736f6c63430005100032",
  "source": "pragma solidity ^0.5.0;\n\nimport \"@openzeppelin/contracts/math/SafeMath.sol\";\n// import \"./SafeMath.sol\";\n\nimport \"@openzeppelin/contracts/token/ERC20/ERC20Detailed.sol\";\n// import \"./ERC20Detailed.sol\";\n\nimport \"@openzeppelin/contracts/token/ERC20/SafeERC20.sol\";\n// import \"./SafeERC20.sol\";\n\nimport \"@chainlink/contracts/src/v0.5/interfaces/AggregatorInterface.sol\";\n\n// import \"./AggregatorInterface.sol\";\n\ncontract EthBridge {\n    using SafeMath for uint256;\n    using SafeERC20 for ERC20Detailed;\n\n    mapping(bytes32 => bool) public usedEvents_;\n    mapping(address => address) public listERC;\n    mapping(address => uint256) public wards;\n    address public owner;\n    uint16 public threshold;\n    mapping(bytes32 => uint16) confirmations;\n\n    event Locked(\n        string symbol,\n        address indexed addrTokenLock,\n        address indexed sender,\n        uint256 amount,\n        uint256 price,\n        uint256 amountUSD,\n        address recipient\n    );\n\n    event Unlocked(\n        string symbol,\n        address indexed addrTokenUnlock,\n        uint256 amountUSD,\n        uint256 amountToken,\n        uint256 priceToken,\n        address recipient,\n        bytes32 receiptId\n    );\n\n    event WithdrawETH(address indexed _owner, uint256 amount, string msg);\n\n    event WithdrawToken(\n        address addrTokenERC,\n        address indexed _owner,\n        uint256 amount,\n        string msg\n    );\n\n    //MODIFIER\n    modifier auth {\n        require(wards[msg.sender] == 1, \"EthManager/not-authorized\");\n        _;\n    }\n\n    /**\n     * @dev constructor\n     */\n    constructor() public {\n        owner = msg.sender;\n        wards[owner] = 1;\n        threshold = 1;\n        listERC[address(0x0000000000000000000000000000000000000001)] = address(\n            0x30B5068156688f818cEa0874B580206dFe081a03\n        );\n        listERC[address(0xaD6D458402F60fD3Bd25163575031ACDce07538D)] = address(\n            0xaF540Ca83c7da3181778e3D1E11A6137e7e0085B\n        );\n        listERC[address(0xb4f7332ed719Eb4839f091EDDB2A3bA309739521)] = address(\n            0x40c9885aa8213B40e3E8a0a9aaE69d4fb5915a3A\n        );\n        listERC[address(0x4E470dc7321E84CA96FcAEDD0C8aBCebbAEB68C6)] = address(\n            0x6701C0057DAB793F88a30b8d40dD31f3a7bC6B87\n        );\n    }\n\n    function rely(address guy) external auth {\n        wards[guy] = 1;\n    }\n\n    function deny(address guy) external auth {\n        require(guy != owner, \"EthManager/cannot deny the owner\");\n        wards[guy] = 0;\n    }\n\n    /**\n     * @dev change oracle in listERC\n     * @param _addrERC address of contract ERC in Ethereum\n     * @param _oracleAddr oracle address of token in chainlink\n     */\n    function changeOracle(address _addrERC, address _oracleAddr) public auth {\n        require(_addrERC != address(0), \"_addrERC of oracle is a zero address\");\n        require(\n            _oracleAddr != address(0),\n            \"_oracleAddr of oracle is a zero address\"\n        );\n        listERC[_addrERC] = _oracleAddr;\n    }\n\n    /**\n     * @dev change threshold requirement\n     * @param newTheshold new threshold requirement\n     */\n    function changeThreshold(uint16 newTheshold) public {\n        require(\n            msg.sender == owner,\n            \"EthManager/only owner can change threshold\"\n        );\n        threshold = newTheshold;\n    }\n\n    /**\n     * Returns the latest price\n     */\n    function getLatestPrice(address _tokenERC) public view returns (int256) {\n        AggregatorInterface priceFeed = AggregatorInterface(_tokenERC);\n        int256 price = priceFeed.latestAnswer();\n        return price;\n    }\n\n    /**\n     * @dev lock ETH to be transfer ONE to recipient on Harmony chain\n     * @param amount amount of tokens to lock\n     * @param recipient recipient address on the Ethereum chain\n     */\n    function lockEth(uint256 amount, address recipient) public payable {\n        require(\n            recipient != address(0),\n            \"EthManager/recipient is a zero address\"\n        );\n        require(amount > 0, \"EthManager/zero token locked\");\n        require(amount == msg.value, \"amount and msg.value different\");\n        uint256 _price = uint256(\n            getLatestPrice(\n                listERC[address(0x0000000000000000000000000000000000000001)]\n            )\n        );\n        uint256 _amountUSD = _price * msg.value;\n        emit Locked(\n            \"ETH\",\n            address(0x0000000000000000000000000000000000000001),\n            msg.sender,\n            msg.value,\n            _price,\n            _amountUSD,\n            recipient\n        );\n    }\n\n    /**\n     * @dev lock tokens to be transfer ONE to recipient on harmony chain\n     * @param addrTokenERC is the address of the token on Ethereum\n     * @param amount amount of tokens to lock\n     * @param recipient recipient address on the harmony chain\n     */\n    function lockToken(\n        address addrTokenERC,\n        uint256 amount,\n        address recipient\n    ) public {\n        require(\n            listERC[addrTokenERC] != address(0),\n            \"address token ERC are not currently supported\"\n        );\n        require(\n            recipient != address(0),\n            \"EthManager/recipient is a zero address\"\n        );\n        require(amount > 0, \"EthManager/zero token locked\");\n\n        ERC20Detailed ethToken = ERC20Detailed(addrTokenERC);\n        uint256 _balanceBefore = ethToken.balanceOf(msg.sender);\n        ethToken.transferFrom(msg.sender, address(this), amount);\n        uint256 _balanceAfter = ethToken.balanceOf(msg.sender);\n        uint256 _actualAmount = _balanceBefore.sub(_balanceAfter);\n        uint256 _price = uint256(getLatestPrice(listERC[addrTokenERC]));\n        uint256 _amountUSD = _price * _actualAmount;\n        emit Locked(\n            ethToken.symbol(),\n            addrTokenERC,\n            msg.sender,\n            _actualAmount,\n            _price,\n            _amountUSD,\n            recipient\n        );\n    }\n\n    /**\n     * @dev lock tokens for a user address to be minted on harmony chain\n     * @param addrTokenERC is the address of the token on Ethereum\n     * @param userAddr is token holder address\n     * @param amount amount of tokens to lock\n     * @param recipient recipient address on the harmony chain\n     */\n    function lockTokenFor(\n        address addrTokenERC,\n        address userAddr,\n        uint256 amount,\n        address recipient\n    ) public auth {\n        require(\n            listERC[addrTokenERC] != address(0),\n            \"address token ERC are not currently supported\"\n        );\n        require(userAddr != address(0), \"userAddr is a zero address\");\n        require(\n            recipient != address(0),\n            \"EthManager/recipient is a zero address\"\n        );\n        require(amount > 0, \"EthManager/zero token locked\");\n\n        ERC20Detailed ethToken = ERC20Detailed(addrTokenERC);\n        uint256 _balanceBefore = ethToken.balanceOf(userAddr);\n        ethToken.transferFrom(userAddr, address(this), amount);\n        uint256 _balanceAfter = ethToken.balanceOf(userAddr);\n        uint256 _actualAmount = _balanceBefore.sub(_balanceAfter);\n        uint256 _price = uint256(getLatestPrice(listERC[addrTokenERC]));\n        uint256 _amountUSD = _price * _actualAmount;\n        emit Locked(\n            ethToken.symbol(),\n            addrTokenERC,\n            msg.sender,\n            _actualAmount,\n            _price,\n            _amountUSD,\n            recipient\n        );\n    }\n\n    /**\n     * @dev unlock tokens after burning them on harmony chain\n     * @param addrTokenERC is the address of the token on Ethereum\n     * @param amountUSD amount USD will be unlocked to token ERC\n     * @param recipient recipient of the unlock tokens\n     * @param receiptId transaction hash of the locktoken event on harmony chain\n     */\n    function unlockToken(\n        address addrTokenERC,\n        uint256 amountUSD,\n        address recipient,\n        bytes32 receiptId\n    ) public auth {\n        require(!usedEvents_[receiptId], \"EthManager/zero token unlocked\");\n        confirmations[receiptId] = confirmations[receiptId] + 1;\n        if (confirmations[receiptId] < threshold) {\n            return;\n        }\n        ERC20Detailed ethToken = ERC20Detailed(addrTokenERC);\n        usedEvents_[receiptId] = true;\n        uint256 _priceToken = uint256(getLatestPrice(listERC[addrTokenERC]));\n        uint256 _amountToken = amountUSD.div(_priceToken);\n        ethToken.transfer(recipient, _amountToken);\n        emit Unlocked(\n            ethToken.symbol(),\n            addrTokenERC,\n            amountUSD,\n            _amountToken,\n            _priceToken,\n            recipient,\n            receiptId\n        );\n        // delete confirmations entry for receiptId\n        delete confirmations[receiptId];\n    }\n\n    /**\n     * @dev unlock ETH after lockOne them on Harmony chain\n     * @param amountUSD amount USD will be unlocked to ETH\n     * @param recipient recipient of the unlock tokens\n     * @param receiptId transaction hash of the locktoken event on harmony chain\n     */\n    function unlockEth(\n        uint256 amountUSD,\n        address payable recipient,\n        bytes32 receiptId\n    ) public auth {\n        require(!usedEvents_[receiptId], \"EthManager/zero token unlocked\");\n        confirmations[receiptId] = confirmations[receiptId] + 1;\n        if (confirmations[receiptId] < threshold) {\n            return;\n        }\n        usedEvents_[receiptId] = true;\n        uint256 _priceETH = uint256(\n            getLatestPrice(\n                listERC[address(0x0000000000000000000000000000000000000001)]\n            )\n        );\n        uint256 _amountETH = amountUSD.div(_priceETH);\n        recipient.transfer(_amountETH);\n        emit Unlocked(\n            \"ETH\",\n            address(0x0000000000000000000000000000000000000001),\n            amountUSD,\n            _amountETH,\n            _priceETH,\n            recipient,\n            receiptId\n        );\n        // delete confirmations entry for receiptId\n        delete confirmations[receiptId];\n    }\n\n    /**\n     * Returns the balance token of msg.sender\n     */\n    function checkMyBalanceOfToken(address _addrToken)\n        public\n        view\n        returns (uint256)\n    {\n        ERC20Detailed ethToken = ERC20Detailed(_addrToken);\n        uint256 balance = ethToken.balanceOf(msg.sender);\n        return balance;\n    }\n\n    /**\n     * Returns the balance token of contract\n     */\n    function checkContractBalanceOfToken(address _addrToken)\n        public\n        view\n        returns (uint256)\n    {\n        ERC20Detailed ethToken = ERC20Detailed(_addrToken);\n        uint256 balance = ethToken.balanceOf(address(this));\n        return balance;\n    }\n\n    /**\n     * get balance ETH\n     */\n    function getBalanceETH() public view returns (uint256) {\n        return address(this).balance;\n    }\n\n    /** Function withdraw ETH to account Manager\n     */\n    function withdraw(address payable _owner) public auth {\n        uint256 balanceBefore = address(this).balance;\n        _owner.transfer(address(this).balance);\n        emit WithdrawETH(_owner, balanceBefore, \"Withdraw ETH\");\n    }\n\n    /** Function withdraw Token to account Manager\n     * @param addrTokenERC is the Ethereum token contract address\n     */\n    function withdrawToken(\n        address addrTokenERC,\n        address _owner,\n        uint256 amount\n    ) public auth {\n        require(amount > 0, \"EthManager/zero token locked\");\n        ERC20Detailed ethToken = ERC20Detailed(addrTokenERC);\n        ethToken.transfer(_owner, amount);\n        emit WithdrawToken(addrTokenERC, _owner, amount, \"withdraw Token\");\n    }\n\n    function() external payable {}\n}\n",
  "sourcePath": "/home/trinh.van.tan/GoldenStarSwap/eth/contracts/EthBridge.sol",
  "compiler": {
    "name": "solc",
    "version": "0.5.16+commit.9c3226ce.Emscripten.clang"
  },
  "schemaVersion": "3.2.5",
  "updatedAt": "2020-09-26T10:55:15.063Z",
  "networkType": "ethereum",
  "devdoc": {
    "methods": {
      "changeOracle(address,address)": {
        "details": "change oracle in listERC",
        "params": {
          "_addrERC": "address of contract ERC in Ethereum",
          "_oracleAddr": "oracle address of token in chainlink"
        }
      },
      "changeThreshold(uint16)": {
        "details": "change threshold requirement",
        "params": {
          "newTheshold": "new threshold requirement"
        }
      },
      "constructor": {
        "details": "constructor"
      },
      "lockEth(uint256,address)": {
        "details": "lock ETH to be transfer ONE to recipient on Harmony chain",
        "params": {
          "amount": "amount of tokens to lock",
          "recipient": "recipient address on the Ethereum chain"
        }
      },
      "lockToken(address,uint256,address)": {
        "details": "lock tokens to be transfer ONE to recipient on harmony chain",
        "params": {
          "addrTokenERC": "is the address of the token on Ethereum",
          "amount": "amount of tokens to lock",
          "recipient": "recipient address on the harmony chain"
        }
      },
      "lockTokenFor(address,address,uint256,address)": {
        "details": "lock tokens for a user address to be minted on harmony chain",
        "params": {
          "addrTokenERC": "is the address of the token on Ethereum",
          "amount": "amount of tokens to lock",
          "recipient": "recipient address on the harmony chain",
          "userAddr": "is token holder address"
        }
      },
      "unlockEth(uint256,address,bytes32)": {
        "details": "unlock ETH after lockOne them on Harmony chain",
        "params": {
          "amountUSD": "amount USD will be unlocked to ETH",
          "receiptId": "transaction hash of the locktoken event on harmony chain",
          "recipient": "recipient of the unlock tokens"
        }
      },
      "unlockToken(address,uint256,address,bytes32)": {
        "details": "unlock tokens after burning them on harmony chain",
        "params": {
          "addrTokenERC": "is the address of the token on Ethereum",
          "amountUSD": "amount USD will be unlocked to token ERC",
          "receiptId": "transaction hash of the locktoken event on harmony chain",
          "recipient": "recipient of the unlock tokens"
        }
      },
      "withdrawToken(address,address,uint256)": {
        "params": {
          "addrTokenERC": "is the Ethereum token contract address"
        }
      }
    }
  },
  "userdoc": {
    "methods": {
      "checkContractBalanceOfToken(address)": {
        "notice": "Returns the balance token of contract"
      },
      "checkMyBalanceOfToken(address)": {
        "notice": "Returns the balance token of msg.sender"
      },
      "getBalanceETH()": {
        "notice": "get balance ETH"
      },
      "getLatestPrice(address)": {
        "notice": "Returns the latest price"
      },
      "withdraw(address)": {
        "notice": "Function withdraw ETH to account Manager"
      },
      "withdrawToken(address,address,uint256)": {
        "notice": "Function withdraw Token to account Manager"
      }
    }
  }
}