{
  "contractName": "HmyBridge",
  "abi": [
    {
      "constant": true,
      "inputs": [
        {
          "name": "",
          "type": "address"
        }
      ],
      "name": "mappings",
      "outputs": [
        {
          "name": "",
          "type": "address"
        }
      ],
      "payable": false,
      "stateMutability": "view",
      "type": "function"
    },
    {
      "constant": true,
      "inputs": [],
      "name": "threshold",
      "outputs": [
        {
          "name": "",
          "type": "uint16"
        }
      ],
      "payable": false,
      "stateMutability": "view",
      "type": "function"
    },
    {
      "constant": true,
      "inputs": [],
      "name": "oracleONE",
      "outputs": [
        {
          "name": "",
          "type": "address"
        }
      ],
      "payable": false,
      "stateMutability": "view",
      "type": "function"
    },
    {
      "constant": true,
      "inputs": [],
      "name": "owner",
      "outputs": [
        {
          "name": "",
          "type": "address"
        }
      ],
      "payable": false,
      "stateMutability": "view",
      "type": "function"
    },
    {
      "constant": true,
      "inputs": [
        {
          "name": "",
          "type": "bytes32"
        }
      ],
      "name": "usedEvents_",
      "outputs": [
        {
          "name": "",
          "type": "bool"
        }
      ],
      "payable": false,
      "stateMutability": "view",
      "type": "function"
    },
    {
      "constant": true,
      "inputs": [
        {
          "name": "",
          "type": "address"
        }
      ],
      "name": "wards",
      "outputs": [
        {
          "name": "",
          "type": "uint256"
        }
      ],
      "payable": false,
      "stateMutability": "view",
      "type": "function"
    },
    {
      "constant": true,
      "inputs": [
        {
          "name": "",
          "type": "address"
        }
      ],
      "name": "listERC",
      "outputs": [
        {
          "name": "",
          "type": "bool"
        }
      ],
      "payable": false,
      "stateMutability": "view",
      "type": "function"
    },
    {
      "inputs": [],
      "payable": false,
      "stateMutability": "nonpayable",
      "type": "constructor"
    },
    {
      "payable": true,
      "stateMutability": "payable",
      "type": "fallback"
    },
    {
      "anonymous": false,
      "inputs": [
        {
          "indexed": true,
          "name": "addrTokenTo",
          "type": "address"
        },
        {
          "indexed": true,
          "name": "sender",
          "type": "address"
        },
        {
          "indexed": false,
          "name": "amountONE",
          "type": "uint256"
        },
        {
          "indexed": false,
          "name": "priceONE",
          "type": "uint256"
        },
        {
          "indexed": false,
          "name": "amountUSD",
          "type": "uint256"
        },
        {
          "indexed": false,
          "name": "recipient",
          "type": "address"
        }
      ],
      "name": "Locked",
      "type": "event"
    },
    {
      "anonymous": false,
      "inputs": [
        {
          "indexed": false,
          "name": "amountUSD",
          "type": "uint256"
        },
        {
          "indexed": false,
          "name": "priceONE",
          "type": "uint256"
        },
        {
          "indexed": false,
          "name": "amountONE",
          "type": "uint256"
        },
        {
          "indexed": false,
          "name": "recipient",
          "type": "address"
        },
        {
          "indexed": false,
          "name": "receiptId",
          "type": "bytes32"
        }
      ],
      "name": "Unlocked",
      "type": "event"
    },
    {
      "anonymous": false,
      "inputs": [
        {
          "indexed": true,
          "name": "_owner",
          "type": "address"
        },
        {
          "indexed": false,
          "name": "amount",
          "type": "uint256"
        },
        {
          "indexed": false,
          "name": "msg",
          "type": "string"
        }
      ],
      "name": "WithdrawONE",
      "type": "event"
    },
    {
      "constant": false,
      "inputs": [
        {
          "name": "guy",
          "type": "address"
        }
      ],
      "name": "rely",
      "outputs": [],
      "payable": false,
      "stateMutability": "nonpayable",
      "type": "function"
    },
    {
      "constant": false,
      "inputs": [
        {
          "name": "guy",
          "type": "address"
        }
      ],
      "name": "deny",
      "outputs": [],
      "payable": false,
      "stateMutability": "nonpayable",
      "type": "function"
    },
    {
      "constant": false,
      "inputs": [
        {
          "name": "_oracleONE",
          "type": "address"
        }
      ],
      "name": "changeOracleONE",
      "outputs": [],
      "payable": false,
      "stateMutability": "nonpayable",
      "type": "function"
    },
    {
      "constant": false,
      "inputs": [
        {
          "name": "newTheshold",
          "type": "uint16"
        }
      ],
      "name": "changeThreshold",
      "outputs": [],
      "payable": false,
      "stateMutability": "nonpayable",
      "type": "function"
    },
    {
      "constant": false,
      "inputs": [
        {
          "name": "_addrERC",
          "type": "address"
        },
        {
          "name": "_status",
          "type": "bool"
        }
      ],
      "name": "changeListERC",
      "outputs": [],
      "payable": false,
      "stateMutability": "nonpayable",
      "type": "function"
    },
    {
      "constant": true,
      "inputs": [
        {
          "name": "_tokenERC",
          "type": "address"
        }
      ],
      "name": "getLatestPrice",
      "outputs": [
        {
          "name": "",
          "type": "int256"
        }
      ],
      "payable": false,
      "stateMutability": "view",
      "type": "function"
    },
    {
      "constant": false,
      "inputs": [
        {
          "name": "addrTokenTo",
          "type": "address"
        },
        {
          "name": "amountONE",
          "type": "uint256"
        },
        {
          "name": "recipient",
          "type": "address"
        }
      ],
      "name": "lockOne",
      "outputs": [],
      "payable": true,
      "stateMutability": "payable",
      "type": "function"
    },
    {
      "constant": false,
      "inputs": [
        {
          "name": "amountUSD",
          "type": "uint256"
        },
        {
          "name": "recipient",
          "type": "address"
        },
        {
          "name": "receiptId",
          "type": "bytes32"
        }
      ],
      "name": "unlockOne",
      "outputs": [],
      "payable": false,
      "stateMutability": "nonpayable",
      "type": "function"
    },
    {
      "constant": true,
      "inputs": [],
      "name": "getBalanceOne",
      "outputs": [
        {
          "name": "",
          "type": "uint256"
        }
      ],
      "payable": false,
      "stateMutability": "view",
      "type": "function"
    },
    {
      "constant": false,
      "inputs": [
        {
          "name": "_owner",
          "type": "address"
        }
      ],
      "name": "withdraw",
      "outputs": [],
      "payable": false,
      "stateMutability": "nonpayable",
      "type": "function"
    }
  ],
  "bytecode": "0x608060405234801561001057600080fd5b5033600360006101000a81548173ffffffffffffffffffffffffffffffffffffffff021916908373ffffffffffffffffffffffffffffffffffffffff160217905550600160026000600360009054906101000a900473ffffffffffffffffffffffffffffffffffffffff1673ffffffffffffffffffffffffffffffffffffffff1673ffffffffffffffffffffffffffffffffffffffff168152602001908152602001600020819055506001600660006101000a81548161ffff021916908361ffff1602179055507305d511aafc16c7c12e60a2ec4dbaf267ea72d420600460006101000a81548173ffffffffffffffffffffffffffffffffffffffff021916908373ffffffffffffffffffffffffffffffffffffffff1602179055506001806000600173ffffffffffffffffffffffffffffffffffffffff1673ffffffffffffffffffffffffffffffffffffffff16815260200190815260200160002060006101000a81548160ff021916908315150217905550600180600073ad6d458402f60fd3bd25163575031acdce07538d73ffffffffffffffffffffffffffffffffffffffff1673ffffffffffffffffffffffffffffffffffffffff16815260200190815260200160002060006101000a81548160ff021916908315150217905550600180600073b4f7332ed719eb4839f091eddb2a3ba30973952173ffffffffffffffffffffffffffffffffffffffff1673ffffffffffffffffffffffffffffffffffffffff16815260200190815260200160002060006101000a81548160ff0219169083151502179055506001806000734e470dc7321e84ca96fcaedd0c8abcebbaeb68c673ffffffffffffffffffffffffffffffffffffffff1673ffffffffffffffffffffffffffffffffffffffff16815260200190815260200160002060006101000a81548160ff02191690831515021790555061190d806102d46000396000f3fe6080604052600436106100fe5760003560e01c806365fae35e11610095578063b574ba8611610064578063b574ba8614610519578063bccc9fcf14610558578063bf353dbb146105ab578063c8ae4a2214610610578063f921ee991461066d576100fe565b806365fae35e146103c95780637dc5cea51461041a5780638da5cb5b146104715780639c52a7f1146104c8576100fe565b806341102619116100d1578063411026191461024657806342cde4e8146102d757806351cff8d91461030a57806357d522651461035b576100fe565b80631486abd61461010057806316345f181461016557806322fa48ec146101ca5780632b20fc531461021b575b005b34801561010c57600080fd5b506101636004803603606081101561012357600080fd5b8101908080359060200190929190803573ffffffffffffffffffffffffffffffffffffffff169060200190929190803590602001909291905050506106d6565b005b34801561017157600080fd5b506101b46004803603602081101561018857600080fd5b81019080803573ffffffffffffffffffffffffffffffffffffffff169060200190929190505050610a1d565b6040518082815260200191505060405180910390f35b3480156101d657600080fd5b50610219600480360360208110156101ed57600080fd5b81019080803573ffffffffffffffffffffffffffffffffffffffff169060200190929190505050610ab2565b005b34801561022757600080fd5b50610230610c31565b6040518082815260200191505060405180910390f35b34801561025257600080fd5b506102956004803603602081101561026957600080fd5b81019080803573ffffffffffffffffffffffffffffffffffffffff169060200190929190505050610c50565b604051808273ffffffffffffffffffffffffffffffffffffffff1673ffffffffffffffffffffffffffffffffffffffff16815260200191505060405180910390f35b3480156102e357600080fd5b506102ec610c83565b604051808261ffff1661ffff16815260200191505060405180910390f35b34801561031657600080fd5b506103596004803603602081101561032d57600080fd5b81019080803573ffffffffffffffffffffffffffffffffffffffff169060200190929190505050610c97565b005b6103c76004803603606081101561037157600080fd5b81019080803573ffffffffffffffffffffffffffffffffffffffff16906020019092919080359060200190929190803573ffffffffffffffffffffffffffffffffffffffff169060200190929190505050610e51565b005b3480156103d557600080fd5b50610418600480360360208110156103ec57600080fd5b81019080803573ffffffffffffffffffffffffffffffffffffffff16906020019092919050505061112d565b005b34801561042657600080fd5b5061042f61122a565b604051808273ffffffffffffffffffffffffffffffffffffffff1673ffffffffffffffffffffffffffffffffffffffff16815260200191505060405180910390f35b34801561047d57600080fd5b50610486611250565b604051808273ffffffffffffffffffffffffffffffffffffffff1673ffffffffffffffffffffffffffffffffffffffff16815260200191505060405180910390f35b3480156104d457600080fd5b50610517600480360360208110156104eb57600080fd5b81019080803573ffffffffffffffffffffffffffffffffffffffff169060200190929190505050611276565b005b34801561052557600080fd5b506105566004803603602081101561053c57600080fd5b81019080803561ffff169060200190929190505050611437565b005b34801561056457600080fd5b506105916004803603602081101561057b57600080fd5b81019080803590602001909291905050506114fd565b604051808215151515815260200191505060405180910390f35b3480156105b757600080fd5b506105fa600480360360208110156105ce57600080fd5b81019080803573ffffffffffffffffffffffffffffffffffffffff16906020019092919050505061151d565b6040518082815260200191505060405180910390f35b34801561061c57600080fd5b5061066b6004803603604081101561063357600080fd5b81019080803573ffffffffffffffffffffffffffffffffffffffff169060200190929190803515159060200190929190505050611535565b005b34801561067957600080fd5b506106bc6004803603602081101561069057600080fd5b81019080803573ffffffffffffffffffffffffffffffffffffffff1690602001909291905050506116cb565b604051808215151515815260200191505060405180910390f35b6001600260003373ffffffffffffffffffffffffffffffffffffffff1673ffffffffffffffffffffffffffffffffffffffff168152602001908152602001600020541461078b576040517f08c379a00000000000000000000000000000000000000000000000000000000081526004018080602001828103825260198152602001807f486d794d616e616765722f6e6f742d617574686f72697a65640000000000000081525060200191505060405180910390fd5b60008082815260200190815260200160002060009054906101000a900460ff161561081e576040517f08c379a000000000000000000000000000000000000000000000000000000000815260040180806020018281038252601d8152602001807f686d794272696764652f7a65726f20746f6b656e20756e6c6f636b656400000081525060200191505060405180910390fd5b60016007600083815260200190815260200160002060009054906101000a900461ffff16016007600083815260200190815260200160002060006101000a81548161ffff021916908361ffff160217905550600660009054906101000a900461ffff1661ffff166007600083815260200190815260200160002060009054906101000a900461ffff1661ffff1610156108b657610a18565b600160008083815260200190815260200160002060006101000a81548160ff021916908315150217905550600061090e600460009054906101000a900473ffffffffffffffffffffffffffffffffffffffff16610a1d565b9050600061092582866116eb90919063ffffffff16565b90508373ffffffffffffffffffffffffffffffffffffffff166108fc829081150290604051600060405180830381858888f1935050505015801561096d573d6000803e3d6000fd5b507fc2c2fa5e24d343f8706f0514e0146f08821a52d02ea53d1430c5fa2c70943b958583838787604051808681526020018581526020018481526020018373ffffffffffffffffffffffffffffffffffffffff1673ffffffffffffffffffffffffffffffffffffffff1681526020018281526020019550505050505060405180910390a16007600084815260200190815260200160002060006101000a81549061ffff021916905550505b505050565b60008082905060008173ffffffffffffffffffffffffffffffffffffffff166350d25bcd6040518163ffffffff1660e01b815260040160206040518083038186803b158015610a6b57600080fd5b505afa158015610a7f573d6000803e3d6000fd5b505050506040513d6020811015610a9557600080fd5b810190808051906020019092919050505090508092505050919050565b6001600260003373ffffffffffffffffffffffffffffffffffffffff1673ffffffffffffffffffffffffffffffffffffffff1681526020019081526020016000205414610b67576040517f08c379a00000000000000000000000000000000000000000000000000000000081526004018080602001828103825260198152602001807f486d794d616e616765722f6e6f742d617574686f72697a65640000000000000081525060200191505060405180910390fd5b600073ffffffffffffffffffffffffffffffffffffffff168173ffffffffffffffffffffffffffffffffffffffff161415610bed576040517f08c379a000000000000000000000000000000000000000000000000000000000815260040180806020018281038252602581526020018061186d6025913960400191505060405180910390fd5b80600460006101000a81548173ffffffffffffffffffffffffffffffffffffffff021916908373ffffffffffffffffffffffffffffffffffffffff16021790555050565b60003073ffffffffffffffffffffffffffffffffffffffff1631905090565b60056020528060005260406000206000915054906101000a900473ffffffffffffffffffffffffffffffffffffffff1681565b600660009054906101000a900461ffff1681565b6001600260003373ffffffffffffffffffffffffffffffffffffffff1673ffffffffffffffffffffffffffffffffffffffff1681526020019081526020016000205414610d4c576040517f08c379a00000000000000000000000000000000000000000000000000000000081526004018080602001828103825260198152602001807f486d794d616e616765722f6e6f742d617574686f72697a65640000000000000081525060200191505060405180910390fd5b60003073ffffffffffffffffffffffffffffffffffffffff163190508173ffffffffffffffffffffffffffffffffffffffff166108fc3073ffffffffffffffffffffffffffffffffffffffff16319081150290604051600060405180830381858888f19350505050158015610dc5573d6000803e3d6000fd5b508173ffffffffffffffffffffffffffffffffffffffff167f6b2a4d56abf29ceb7ef520a9615fa1b046277989bfaf7b2616179be9133582fa8260405180828152602001806020018281038252600c8152602001807f57697468647261772045544800000000000000000000000000000000000000008152506020019250505060405180910390a25050565b600160008473ffffffffffffffffffffffffffffffffffffffff1673ffffffffffffffffffffffffffffffffffffffff16815260200190815260200160002060009054906101000a900460ff16610ef3576040517f08c379a000000000000000000000000000000000000000000000000000000000815260040180806020018281038252602d815260200180611892602d913960400191505060405180910390fd5b60008211610f69576040517f08c379a000000000000000000000000000000000000000000000000000000000815260040180806020018281038252601b8152602001807f616d6f756e7420746f6b656e206c6f636b6564206973207a65726f000000000081525060200191505060405180910390fd5b348214610fc1576040517f08c379a00000000000000000000000000000000000000000000000000000000081526004018080602001828103825260228152602001806117fc6022913960400191505060405180910390fd5b600073ffffffffffffffffffffffffffffffffffffffff168173ffffffffffffffffffffffffffffffffffffffff161415611047576040517f08c379a00000000000000000000000000000000000000000000000000000000081526004018080602001828103825260258152602001806118486025913960400191505060405180910390fd5b6000611074600460009054906101000a900473ffffffffffffffffffffffffffffffffffffffff16610a1d565b9050600034820290503373ffffffffffffffffffffffffffffffffffffffff168573ffffffffffffffffffffffffffffffffffffffff167f154be75783ccf7f70c837ce99a8c0fa73b889d0426b6fa8779eb4cfede89879234858588604051808581526020018481526020018381526020018273ffffffffffffffffffffffffffffffffffffffff1673ffffffffffffffffffffffffffffffffffffffff16815260200194505050505060405180910390a35050505050565b6001600260003373ffffffffffffffffffffffffffffffffffffffff1673ffffffffffffffffffffffffffffffffffffffff16815260200190815260200160002054146111e2576040517f08c379a00000000000000000000000000000000000000000000000000000000081526004018080602001828103825260198152602001807f486d794d616e616765722f6e6f742d617574686f72697a65640000000000000081525060200191505060405180910390fd5b6001600260008373ffffffffffffffffffffffffffffffffffffffff1673ffffffffffffffffffffffffffffffffffffffff1681526020019081526020016000208190555050565b600460009054906101000a900473ffffffffffffffffffffffffffffffffffffffff1681565b600360009054906101000a900473ffffffffffffffffffffffffffffffffffffffff1681565b6001600260003373ffffffffffffffffffffffffffffffffffffffff1673ffffffffffffffffffffffffffffffffffffffff168152602001908152602001600020541461132b576040517f08c379a00000000000000000000000000000000000000000000000000000000081526004018080602001828103825260198152602001807f486d794d616e616765722f6e6f742d617574686f72697a65640000000000000081525060200191505060405180910390fd5b600360009054906101000a900473ffffffffffffffffffffffffffffffffffffffff1673ffffffffffffffffffffffffffffffffffffffff168173ffffffffffffffffffffffffffffffffffffffff1614156113ef576040517f08c379a00000000000000000000000000000000000000000000000000000000081526004018080602001828103825260208152602001807f486d794d616e616765722f63616e6e6f742064656e7920746865206f776e657281525060200191505060405180910390fd5b6000600260008373ffffffffffffffffffffffffffffffffffffffff1673ffffffffffffffffffffffffffffffffffffffff1681526020019081526020016000208190555050565b600360009054906101000a900473ffffffffffffffffffffffffffffffffffffffff1673ffffffffffffffffffffffffffffffffffffffff163373ffffffffffffffffffffffffffffffffffffffff16146114dd576040517f08c379a000000000000000000000000000000000000000000000000000000000815260040180806020018281038252602a81526020018061181e602a913960400191505060405180910390fd5b80600660006101000a81548161ffff021916908361ffff16021790555050565b60006020528060005260406000206000915054906101000a900460ff1681565b60026020528060005260406000206000915090505481565b6001600260003373ffffffffffffffffffffffffffffffffffffffff1673ffffffffffffffffffffffffffffffffffffffff16815260200190815260200160002054146115ea576040517f08c379a00000000000000000000000000000000000000000000000000000000081526004018080602001828103825260198152602001807f486d794d616e616765722f6e6f742d617574686f72697a65640000000000000081525060200191505060405180910390fd5b600073ffffffffffffffffffffffffffffffffffffffff168273ffffffffffffffffffffffffffffffffffffffff161415611670576040517f08c379a00000000000000000000000000000000000000000000000000000000081526004018080602001828103825260238152602001806118bf6023913960400191505060405180910390fd5b80600160008473ffffffffffffffffffffffffffffffffffffffff1673ffffffffffffffffffffffffffffffffffffffff16815260200190815260200160002060006101000a81548160ff0219169083151502179055505050565b60016020528060005260406000206000915054906101000a900460ff1681565b600061172d83836040518060400160405280601a81526020017f536166654d6174683a206469766973696f6e206279207a65726f000000000000815250611735565b905092915050565b600080831182906117e1576040517f08c379a00000000000000000000000000000000000000000000000000000000081526004018080602001828103825283818151815260200191508051906020019080838360005b838110156117a657808201518184015260208101905061178b565b50505050905090810190601f1680156117d35780820380516001836020036101000a031916815260200191505b509250505060405180910390fd5b5060008385816117ed57fe5b04905080915050939250505056fe616d6f756e74204f4e4520616e64206d73672e76616c756520646966666572656e74486d794d616e616765722f6f6e6c79206f776e65722063616e206368616e6765207468726573686f6c64686d794272696764652f726563697069656e742069732061207a65726f2061646472657373686d794272696764652f6f7261636c654f4e452069732061207a65726f20616464726573736164647265737320746f6b656e2045524320617265206e6f742063757272656e746c7920737570706f7274656461646472657373206f66206f7261636c652069732061207a65726f2061646472657373a165627a7a723058209b70165623e25d47477144e0aea9402587a749a9b064c9dc9395aa6db9e0bb7f0029",
  "source": "pragma solidity ^0.5.0;\n\nimport \"@openzeppelin/contracts/math/SafeMath.sol\";\n// import \"./SafeMath.sol\";\n\nimport \"@chainlink/contracts/src/v0.5/interfaces/AggregatorInterface.sol\";\n\n// import \"./AggregatorInterface.sol\";\n\ncontract HmyBridge {\n    using SafeMath for uint256;\n\n    mapping(bytes32 => bool) public usedEvents_;\n\n    mapping(address => bool) public listERC;\n\n    mapping(address => uint256) public wards;\n\n    address public owner;\n    address public oracleONE;\n\n    mapping(address => address) public mappings;\n\n    uint16 public threshold;\n    mapping(bytes32 => uint16) confirmations;\n\n    event Locked(\n        address indexed addrTokenTo,\n        address indexed sender,\n        uint256 amountONE,\n        uint256 priceONE,\n        uint256 amountUSD,\n        address recipient\n    );\n\n    event Unlocked(\n        uint256 amountUSD,\n        uint256 priceONE,\n        uint256 amountONE,\n        address recipient,\n        bytes32 receiptId\n    );\n\n    event WithdrawONE(address indexed _owner, uint256 amount, string msg);\n\n    modifier auth {\n        require(wards[msg.sender] == 1, \"HmyManager/not-authorized\");\n        _;\n    }\n\n    /**\n     * @dev constructor\n     */\n    constructor() public {\n        owner = msg.sender;\n        wards[owner] = 1;\n        threshold = 1;\n        oracleONE = address(0x05d511aAfc16c7c12E60a2Ec4DbaF267eA72D420);\n        listERC[address(0x0000000000000000000000000000000000000001)] = true;\n        listERC[address(0xaD6D458402F60fD3Bd25163575031ACDce07538D)] = true;\n        listERC[address(0xb4f7332ed719Eb4839f091EDDB2A3bA309739521)] = true;\n        listERC[address(0x4E470dc7321E84CA96FcAEDD0C8aBCebbAEB68C6)] = true;\n    }\n\n    function rely(address guy) external auth {\n        wards[guy] = 1;\n    }\n\n    function deny(address guy) external auth {\n        require(guy != owner, \"HmyManager/cannot deny the owner\");\n        wards[guy] = 0;\n    }\n\n    function changeOracleONE(address _oracleONE) external auth {\n        require(\n            _oracleONE != address(0),\n            \"hmyBrigde/oracleONE is a zero address\"\n        );\n        oracleONE = _oracleONE;\n    }\n\n    /**\n     * @dev change threshold requirement\n     * @param newTheshold new threshold requirement\n     */\n    function changeThreshold(uint16 newTheshold) public {\n        require(\n            msg.sender == owner,\n            \"HmyManager/only owner can change threshold\"\n        );\n        threshold = newTheshold;\n    }\n\n    /**\n     * @dev change listERC\n     * @param _addrERC address of contract ERC in Ethereum\n     * @param _status is staus of address ERC\n     */\n    function changeListERC(address _addrERC, bool _status) public auth {\n        require(_addrERC != address(0), \"address of oracle is a zero address\");\n        listERC[_addrERC] = _status;\n    }\n\n    /**\n     * Returns the latest price\n     */\n    function getLatestPrice(address _tokenERC) public view returns (int256) {\n        AggregatorInterface priceFeed = AggregatorInterface(_tokenERC);\n        int256 price = priceFeed.latestAnswer();\n        return price;\n    }\n\n    /**\n     * @dev lock ONE to be transfer ERC to recipient on ETH chain\n     * @param addrTokenTo is address of tokenTo on Ethereum\n     * @param amountONE amount of ONE to lock\n     * @param recipient recipient address on the ethereum chain\n     */\n    function lockOne(\n        address addrTokenTo,\n        uint256 amountONE,\n        address recipient\n    ) public payable {\n        require(\n            listERC[addrTokenTo],\n            \"address token ERC are not currently supported\"\n        );\n        require(amountONE > 0, \"amount token locked is zero\");\n        require(amountONE == msg.value, \"amount ONE and msg.value different\");\n        require(\n            recipient != address(0),\n            \"hmyBrigde/recipient is a zero address\"\n        );\n        uint256 _priceONE = uint256(getLatestPrice(oracleONE));\n        uint256 _amountUSD = _priceONE * msg.value;\n        emit Locked(\n            addrTokenTo,\n            msg.sender,\n            msg.value,\n            _priceONE,\n            _amountUSD,\n            recipient\n        );\n    }\n\n    /**\n     * @dev unlock ONE after locktoken them on ethereum chain\n     * @param amountUSD amount USD of unlock on Harmony\n     * @param recipient recipient of the unlock tokens\n     * @param receiptId transaction hash of the locktoken event on harmony chain\n     */\n    function unlockOne(\n        uint256 amountUSD,\n        address payable recipient,\n        bytes32 receiptId\n    ) public auth {\n        require(!usedEvents_[receiptId], \"hmyBrigde/zero token unlocked\");\n        confirmations[receiptId] = confirmations[receiptId] + 1;\n        if (confirmations[receiptId] < threshold) {\n            return;\n        }\n        usedEvents_[receiptId] = true;\n        // int256 a = 541000;\n        // uint256 _priceONE = 541000;\n        uint256 _priceONE = uint256(getLatestPrice(oracleONE));\n        uint256 _amountONE = amountUSD.div(_priceONE);\n        recipient.transfer(_amountONE);\n        emit Unlocked(amountUSD, _priceONE, _amountONE, recipient, receiptId);\n        // delete confirmations entry for receiptId\n        delete confirmations[receiptId];\n    }\n\n    /**\n     * get balance ONE\n     */\n    function getBalanceOne() public view returns (uint256) {\n        return address(this).balance;\n    }\n\n    /** Function withdraw ONE to account Manager\n     */\n    function withdraw(address payable _owner) public auth {\n        uint256 balanceBefore = address(this).balance;\n        _owner.transfer(address(this).balance);\n        emit WithdrawONE(_owner, balanceBefore, \"Withdraw ETH\");\n    }\n\n    function() external payable {}\n}\n",
  "sourcePath": "/home/trinh.van.tan/GoldenStarSwap/hmy/contracts/HmyBridge.sol",
  "compiler": {
    "name": "solc",
    "version": "0.5.8+commit.23d335f2.Emscripten.clang"
  },
  "schemaVersion": "3.2.5",
  "updatedAt": "2020-09-26T10:57:26.309Z",
  "networkType": "ethereum",
  "devdoc": {
    "methods": {
      "changeListERC(address,bool)": {
        "details": "change listERC",
        "params": {
          "_addrERC": "address of contract ERC in Ethereum",
          "_status": "is staus of address ERC"
        }
      },
      "changeThreshold(uint16)": {
        "details": "change threshold requirement",
        "params": {
          "newTheshold": "new threshold requirement"
        }
      },
      "constructor": {
        "details": "constructor"
      },
      "lockOne(address,uint256,address)": {
        "details": "lock ONE to be transfer ERC to recipient on ETH chain",
        "params": {
          "addrTokenTo": "is address of tokenTo on Ethereum",
          "amountONE": "amount of ONE to lock",
          "recipient": "recipient address on the ethereum chain"
        }
      },
      "unlockOne(uint256,address,bytes32)": {
        "details": "unlock ONE after locktoken them on ethereum chain",
        "params": {
          "amountUSD": "amount USD of unlock on Harmony",
          "receiptId": "transaction hash of the locktoken event on harmony chain",
          "recipient": "recipient of the unlock tokens"
        }
      }
    }
  },
  "userdoc": {
    "methods": {
      "getBalanceOne()": {
        "notice": "get balance ONE"
      },
      "getLatestPrice(address)": {
        "notice": "Returns the latest price"
      },
      "withdraw(address)": {
        "notice": "Function withdraw ONE to account Manager"
      }
    }
  }
}